{
  "_format": "hh-sol-artifact-1",
  "contractName": "bank",
  "sourceName": "contracts/bank.sol",
  "abi": [
    {
      "inputs": [
        {
          "internalType": "address",
          "name": "",
          "type": "address"
        }
      ],
      "name": "balance",
      "outputs": [
        {
          "internalType": "uint256",
          "name": "",
          "type": "uint256"
        }
      ],
      "stateMutability": "view",
      "type": "function"
    },
    {
      "inputs": [
        {
          "internalType": "address",
          "name": "account",
          "type": "address"
        }
      ],
      "name": "deposit",
      "outputs": [],
      "stateMutability": "payable",
      "type": "function"
    },
    {
      "inputs": [
        {
          "internalType": "address",
          "name": "account",
          "type": "address"
        },
        {
          "internalType": "address",
          "name": "destination",
          "type": "address"
        },
        {
          "internalType": "uint256",
          "name": "amount",
          "type": "uint256"
        }
      ],
      "name": "withdraw",
      "outputs": [],
      "stateMutability": "nonpayable",
      "type": "function"
    }
  ],
  "bytecode": "0x608060405234801561001057600080fd5b506102f2806100206000396000f3fe6080604052600436106100345760003560e01c8063d9caed1214610039578063e3d670d71461005b578063f340fa011461009a575b600080fd5b34801561004557600080fd5b5061005961005436600461021c565b6100ad565b005b34801561006757600080fd5b50610088610076366004610258565b60006020819052908152604090205481565b60405190815260200160405180910390f35b6100596100a8366004610258565b6101d0565b336001600160a01b0384161461010a5760405162461bcd60e51b815260206004820152601f60248201527f4f6e6c79206163636f756e74206f776e65722063616e2077697468647261770060448201526064015b60405180910390fd5b6001600160a01b0383166000908152602081905260409020548111156101675760405162461bcd60e51b8152602060048201526012602482015271496e73756666696369656e742066756e647360701b6044820152606401610101565b6001600160a01b0383166000908152602081905260408120805483929061018f908490610290565b90915550506040516001600160a01b0383169082156108fc029083906000818181858888f193505050501580156101ca573d6000803e3d6000fd5b50505050565b6001600160a01b038116600090815260208190526040812080543492906101f89084906102a9565b909155505050565b80356001600160a01b038116811461021757600080fd5b919050565b60008060006060848603121561023157600080fd5b61023a84610200565b925061024860208501610200565b9150604084013590509250925092565b60006020828403121561026a57600080fd5b61027382610200565b9392505050565b634e487b7160e01b600052601160045260246000fd5b818103818111156102a3576102a361027a565b92915050565b808201808211156102a3576102a361027a56fea2646970667358221220b24f4c7ce6e562056029bd8c3cd1b85c9d22245a58a16174a7ada0e6213e00fe64736f6c63430008110033",
  "linkReferences": {},
  "deployedLinkReferences": {}
}